:100000000C9434000C9449000C9449000C94490061
:100010000C9449000C9449000C9449000C9449003C
:100020000C9449000C9449000C9449000C9449002C
:100030000C9449000C9449000C9449000C9449001C
:100040000C9449000C9449000C9449000C9449000C
:100050000C9449000C9449000C9449000C944900FC
:100060000C9449000C94490011241FBECFEFD8E036
:10007000DEBFCDBF11E0A0E0B1E0E0E6FEE002C0EF
:1000800005900D92A233B107D9F70E949C000C9401
:100090002E070C94000080917A00806480937A008F
:1000A00080917A0086FDFCCF809178009091790054
:1000B000089598B1917E880F892B88B9299A85E394
:1000C0008A95F1F7000029988FE891E00197F1F700
:1000D00000C0000008950F931F93CF938C01F80187
:1000E000C1918F01CC2389F0289A8C2F82958F7033
:1000F0000E9459008C2F8F700E9459008FE39FE15E
:100100000197F1F700C00000EACFCF911F910F9146
:100110000895CF93C82F289882958F700E94590018
:100120008C2F8F700E9459008FE39FE10197F1F7A8
:1001300000C00000CF910895CF93DF93CDB7DEB715
:1001400060970FB6F894DEBF0FBECDBF84B1836059
:1001500084B987B18E6187B938982FEF80E792E034
:10016000215080409040E1F700C0000083E00E94F1
:1001700059008FE19EE40197F1F700C0000083E091
:100180000E94590087E592E00197F1F700C0000056
:1001900083E00E9459008FE99FE00197F1F700C0CA
:1001A000000082E00E94590088E20E9489008CE0F1
:1001B0000E94890081E00E9489008FE39FE10197FE
:1001C000F1F700C0000080E480937C0087E8809312
:1001D0007A0081E00E94890080E091E00E946B003B
:1001E00008EE13E0C12CD12C76010E944B00C80E02
:1001F000D91EE11CF11C8FE891E00197F1F700C0D6
:1002000000000150110989F7C701B60128EE33E05B
:1002100040E050E00E94F70389019FEF29E688E162
:10022000915020408040E1F700C000009FE1892EFE
:1002300091E0992ECE0101965C0184EFE82EFF2417
:10024000F394412C512C32010E944B00DC01A01B85
:10025000B10B9D010E941604460E571E681E791EA2
:100260008FEC97E00197F1F700C0000091E0E91AE8
:10027000F10851F7C301B2010E94A30220E030E06F
:100280004AEF53E40E94F9010E94A2032DEC3CECDA
:100290004CEC5BE30E942F032B013C010E946B029C
:1002A0006B0181E00E94890081E191E00E946B0076
:1002B00080EC0E948900B6010D2C000C880B990B74
:1002C0000E94A3029B01AC01C301B2010E948C01F8
:1002D00020E030E048EC52E40E942F030E946B02C1
:1002E0007F936F93DF92CF929F928F92BF92AF9244
:1002F0000E945604C5010E946B002FEF89E698E129
:10030000215080409040E1F700C000000FB6F89403
:10031000DEBF0FBECDBF91CF5058BB27AA270E948A
:10032000A4010C94F5020E94E70238F00E94EE024C
:1003300020F039F49F3F19F426F40C94E4020EF4F3
:10034000E095E7FB0C94DE02E92F0E94060358F3C8
:10035000BA17620773078407950720F079F4A6F5AA
:100360000C9428030EF4E0950B2EBA2FA02D0B0150
:10037000B90190010C01CA01A0011124FF27591BEA
:1003800099F0593F50F4503E68F11A16F040A22FF0
:10039000232F342F4427585FF3CF46953795279561
:1003A000A795F0405395C9F77EF41F16BA0B620B60
:1003B000730B840BBAF09150A1F0FF0FBB1F661FA7
:1003C000771F881FC2F70EC0BA0F621F731F841FEA
:1003D00048F4879577956795B795F7959E3F08F010
:1003E000B0CF9395880F08F09927EE0F97958795D2
:1003F00008950E940D020C94F5020E94EE0258F03E
:100400000E94E70240F029F45F3F29F00C94DE02DD
:1004100051110C9429030C94E4020E94060368F322
:100420009923B1F3552391F3951B550BBB27AA27AD
:1004300062177307840738F09F5F5F4F220F331FE7
:10044000441FAA1FA9F335D00E2E3AF0E0E832D0AF
:1004500091505040E695001CCAF72BD0FE2F29D0B2
:10046000660F771F881FBB1F261737074807AB0784
:10047000B0E809F0BB0B802DBF01FF2793585F4FF9
:100480003AF09E3F510578F00C94DE020C9429035B
:100490005F3FE4F3983ED4F3869577956795B795DB
:1004A000F7959F5FC9F7880F911D9695879597F9E6
:1004B0000895E1E0660F771F881FBB1F621773075F
:1004C0008407BA0720F0621B730B840BBA0BEE1F74
:1004D00088F7E09508950E9472026894B1110C9417
:1004E000290308950E940E0388F09F5798F0B92FB2
:1004F0009927B751B0F0E1F0660F771F881F991F59
:100500001AF0BA95C9F714C0B13091F00E942803CF
:10051000B1E008950C942803672F782F8827B85FDF
:1005200039F0B93FCCF3869577956795B395D9F7B0
:100530003EF490958095709561957F4F8F4F9F4FBA
:100540000895E89409C097FB3EF4909580957095C6
:1005500061957F4F8F4F9F4F9923A9F0F92F96E90F
:10056000BB279395F695879577956795B795F11184
:10057000F8CFFAF4BB0F11F460FF1BC06F5F7F4F21
:100580008F4F9F4F16C0882311F096E911C0772333
:1005900021F09EE8872F762F05C0662371F096E83C
:1005A000862F70E060E02AF09A95660F771F881F0B
:1005B000DAF7880F9695879597F9089597F99F67C9
:1005C00080E870E060E008959FEF80EC08950024DB
:1005D0000A941616170618060906089500240A94A8
:1005E00012161306140605060895092E0394000C2E
:1005F00011F4882352F0BB0F40F4BF2B11F460FFBD
:1006000004C06F5F7F4F8F4F9F4F089557FD9058E5
:10061000440F551F59F05F3F71F04795880F97FBC6
:10062000991F61F09F3F79F0879508951216130680
:100630001406551FF2CF4695F1DF08C016161706AF
:100640001806991FF1CF86957105610508940895E4
:10065000E894BB2766277727CB0197F908950E9476
:1006600042030C94F5020E94E70238F00E94EE0269
:1006700020F0952311F00C94DE020C94E402112476
:100680000C9429030E94060370F3959FC1F3950F04
:1006900050E0551F629FF001729FBB27F00DB11D06
:1006A000639FAA27F00DB11DAA1F649F6627B00D96
:1006B000A11D661F829F2227B00DA11D621F739F7F
:1006C000B00DA11D621F839FA00D611D221F749F8D
:1006D0003327A00D611D231F849F600D211D822FD4
:1006E000762F6A2F11249F5750409AF0F1F08823FB
:1006F0004AF0EE0FFF1FBB1F661F771F881F915028
:100700005040A9F79E3F510580F00C94DE020C94F6
:1007100029035F3FE4F3983ED4F386957795679578
:10072000B795F795E7959F5FC1F7FE2B880F911D51
:100730009695879597F9089519F416F40C94E402A8
:100740000C94E2030E940E03B8F39923C9F3B6F3A5
:100750009F57550B87FF0E94F0030024A0E640EA54
:10076000900180585695979528F4805C660F771F06
:10077000881F20F026173707480730F4621B730BD9
:10078000840B202931294A2BA695179407942025FC
:1007900031254A2758F7660F771F881F20F0261744
:1007A0003707480730F4620B730B840B200D311DA3
:1007B000411DA09581F7B901842F9158880F969516
:1007C000879508959F3F31F0915020F48795779554
:1007D0006795B795880F911D9695879597F9089518
:1007E00091505040660F771F881FD2F70895052E4D
:1007F00097FB1EF400940E940E0457FD07D00E9440
:10080000340407FC03D04EF40C940E04509540952C
:10081000309521953F4F4F4F5F4F089590958095AC
:10082000709561957F4F8F4F9F4F08950E941E04D2
:10083000332312F48A1B9B0B0C942F04A29FB0014C
:10084000B39FC001A39F700D811D1124911DB29F04
:10085000700D811D1124911D08950E941E04B7FF83
:100860000895821B930B0895A1E21A2EAA1BBB1BAD
:10087000FD010DC0AA1FBB1FEE1FFF1FA217B3076C
:10088000E407F50720F0A21BB30BE40BF50B661F82
:10089000771F881F991F1A9469F760957095809546
:1008A00090959B01AC01BD01CF010895AEE0B0E091
:1008B000ECE5F4E00C9405070D891E8986E08C8335
:1008C0001A8309838FEF9FE79E838D83AE01475E76
:1008D0005F4F6F89788DCE0101960E9479042F8138
:1008E0003885020F131FF80110822E96E4E00C9455
:1008F0002107ABE0B0E0EFE7F4E00C94F7067C01F1
:100900003B018A01FC0117821682838181FFC8C1E5
:10091000CE0101965C01F7019381F30193FD85916E
:1009200093FF81913F01882309F453C1853239F443
:1009300093FD859193FF81913F01853229F4B701A1
:1009400090E00E946906E7CF912C212C312CFFE129
:10095000F31538F08B3211F190F4803209F18332C3
:1009600029F137FC3CC020ED280F2A3050F536FE27
:1009700020C08AE0989E200D1124922E06C08D3250
:1009800091F0803371F7689430F8F30193FD85910D
:1009900093FF81913F018111DACF21C0689431F832
:1009A000689432F8F2CF689433F8EFCF689434F853
:1009B000ECCFEAE02E9E200D1124222E689435F80B
:1009C000E4CF8E3229F436FC04C1689436F8DDCFCA
:1009D0008C3619F4689437F8D8CF8836B1F2982F4E
:1009E0009F7D95549330E0F08336A1F18337C1F1B8
:1009F000833509F063C02801F2E04F0E511CF80165
:100A0000C080D180692D70E036FC02C06FEF7FEFAF
:100A1000C6010E9453064C01689437F882010AC04F
:100A20000C5F1F4FFFE3F98388248394912C6501A9
:100A3000E89437F833FE2DC0522C8114910471F5DF
:100A4000552009F468CFB70180E290E00E94690662
:100A50005A94F6CFF801808189830E5F1F4FE4CF4F
:100A60002801F2E04F0E511CF801C080D180692DA1
:100A700070E036FC02C06FEF7FEFC6010E945E0699
:100A80004C018201D5CFB70180E290E00E94690657
:100A90002A942814190409F0B0F7CECFF60137FCD8
:100AA000859137FE81916F01B70190E00E94690640
:100AB00051105A94F1E08F1A9108BFCF843619F083
:100AC000893609F077C0F80137FE6BC0608171810B
:100AD000828193810C5F1F4FF32DFF763F2E97FF8E
:100AE00009C090958095709561957F4F8F4F9F4F6E
:100AF000689437F82AE030E0A5010E949906C82ED4
:100B0000CA188C2C432C36FE0CC0E89440F8C9144B
:100B100040F434FE05C032FC03C0F32DFE7E4F2EA0
:100B2000892C44FE95C0FE01EC0DF11D80818033BF
:100B300009F087C0242D297E422E842D8870582EDE
:100B400043FC95C040FE8FC09C2C821418F42C0CE2
:100B5000922C981844FE91C0B70180E390E00E9467
:100B6000690642FE09C088E790E041FE02C088E5C0
:100B700090E0B7010E946906C91408F48AC0CA94BB
:100B8000D12C9FEFC91AD90ACA0CDB1CF60182913D
:100B90006F01B70190E00E946906AC14BD04B1F783
:100BA0004FCF60817181072E000C880B990B0E5F6F
:100BB0001F4F92CFD32CE894D4F82AE030E0853749
:100BC00039F1232D297FD22E8F3601F148F4883553
:100BD000A9F0F701868197812B96E2E10C94130727
:100BE000803749F08837A9F7D4FE02C06894D2F85C
:100BF00020E130E00DC06894D4F8F6CF34FE03C095
:100C0000822F8660D82E20E132E002C028E030E05A
:100C1000F801D7FE0FC060817181828193810C5FE2
:100C20001F4FA5010E949906C82ECA183D2CE894B2
:100C300037F867CF6081718190E080E00E5F1F4FD1
:100C4000F0CF42FC02C0839478CF8394839475CF15
:100C5000842D867809F471CFF6CFB70180E290E059
:100C60000E94690683948214C0F3512C73CF522CD6
:100C70005818821408F46ECFF8CF842D867809F4C2
:100C80007BCF8BE241FE80E247FC8DE2B70190E032
:100C900071CFB70180E390E00E9469069A946CCF0F
:100CA0008FEF9FEF99CFFC010590615070400110CC
:100CB000D8F7809590958E0F9F1F0895FC01615085
:100CC000704001900110D8F7809590958E0F9F1F6E
:100CD00008950F931F93CF93DF93182F092FEB01E4
:100CE0008B8181FD09C01FEF0FEF812F902FDF91C6
:100CF000CF911F910F91089582FF14C02E813F81E3
:100D00008C819D81281739073CF4E881F981CF0156
:100D100001969983888310838E819F8101969F839A
:100D20008E83E3CFE885F985812F0995892BA1F37F
:100D3000DACFFA01AA27283051F1203181F1E89465
:100D40006F936E7F6E5F7F4F8F4F9F4FAF4FB1E0BE
:100D50003ED0B4E03CD0670F781F891F9A1FA11DB9
:100D6000680F791F8A1F911DA11D6A0F711D811DBA
:100D7000911DA11D20D009F468943F912AE0269F7F
:100D800011243019305D3193DEF6CF010895462FDE
:100D90004770405D4193B3E00FD0C9F7F6CF462FBF
:100DA0004F70405D4A3318F0495D31FD4052419328
:100DB00002D0A9F7EACFB4E0A695979587957795E5
:100DC0006795BA95C9F700976105710508959B016C
:100DD000AC010A2E06945795479537952795BA95F5
:100DE000C9F7620F731F841F951FA01D08952F92CE
:100DF0003F924F925F926F927F928F929F92AF92AB
:100E0000BF92CF92DF92EF92FF920F931F93CF93F7
:100E1000DF93CDB7DEB7CA1BDB0B0FB6F894DEBF8E
:100E20000FBECDBF09942A88398848885F846E84B4
:100E30007D848C849B84AA84B984C884DF80EE80FE
:100E4000FD800C811B81AA81B981CE0FD11D0FB607
:100E5000F894DEBF0FBECDBFED010895F894FFCF2B
:100E60004B414C49425245204544494C49594F5207
:100E700000414320524D532056414C55453A0056AF
:100E8000726D733A2025642E2530326420566F6CC3
:020E90007400EC
:00000001FF
